{
  "_format": "hh-sol-artifact-1",
  "contractName": "InsecureEtherVault",
  "sourceName": "contracts/InsecureEtherVault.sol",
  "abi": [
    {
      "anonymous": false,
      "inputs": [
        {
          "indexed": true,
          "internalType": "address",
          "name": "previousOwner",
          "type": "address"
        },
        {
          "indexed": true,
          "internalType": "address",
          "name": "newOwner",
          "type": "address"
        }
      ],
      "name": "OwnershipTransferred",
      "type": "event"
    },
    {
      "anonymous": false,
      "inputs": [
        {
          "indexed": false,
          "internalType": "address",
          "name": "account",
          "type": "address"
        }
      ],
      "name": "Paused",
      "type": "event"
    },
    {
      "anonymous": false,
      "inputs": [
        {
          "indexed": false,
          "internalType": "address",
          "name": "account",
          "type": "address"
        }
      ],
      "name": "Unpaused",
      "type": "event"
    },
    {
      "anonymous": false,
      "inputs": [
        {
          "indexed": true,
          "internalType": "address",
          "name": "userAddress",
          "type": "address"
        },
        {
          "indexed": true,
          "internalType": "uint256",
          "name": "balance",
          "type": "uint256"
        }
      ],
      "name": "WithdrawAllCalled",
      "type": "event"
    },
    {
      "inputs": [],
      "name": "deposit",
      "outputs": [],
      "stateMutability": "payable",
      "type": "function"
    },
    {
      "inputs": [],
      "name": "getBalance",
      "outputs": [
        {
          "internalType": "uint256",
          "name": "",
          "type": "uint256"
        }
      ],
      "stateMutability": "view",
      "type": "function"
    },
    {
      "inputs": [
        {
          "internalType": "address",
          "name": "_user",
          "type": "address"
        }
      ],
      "name": "getUserBalance",
      "outputs": [
        {
          "internalType": "uint256",
          "name": "",
          "type": "uint256"
        }
      ],
      "stateMutability": "view",
      "type": "function"
    },
    {
      "inputs": [],
      "name": "owner",
      "outputs": [
        {
          "internalType": "address",
          "name": "",
          "type": "address"
        }
      ],
      "stateMutability": "view",
      "type": "function"
    },
    {
      "inputs": [],
      "name": "pause",
      "outputs": [],
      "stateMutability": "nonpayable",
      "type": "function"
    },
    {
      "inputs": [],
      "name": "paused",
      "outputs": [
        {
          "internalType": "bool",
          "name": "",
          "type": "bool"
        }
      ],
      "stateMutability": "view",
      "type": "function"
    },
    {
      "inputs": [],
      "name": "renounceOwnership",
      "outputs": [],
      "stateMutability": "nonpayable",
      "type": "function"
    },
    {
      "inputs": [
        {
          "internalType": "address",
          "name": "newOwner",
          "type": "address"
        }
      ],
      "name": "transferOwnership",
      "outputs": [],
      "stateMutability": "nonpayable",
      "type": "function"
    },
    {
      "inputs": [],
      "name": "unpause",
      "outputs": [],
      "stateMutability": "nonpayable",
      "type": "function"
    },
    {
      "inputs": [],
      "name": "withdrawAll",
      "outputs": [],
      "stateMutability": "nonpayable",
      "type": "function"
    }
  ],
  "bytecode": "0x608060405234801561001057600080fd5b5061002d61002261004c60201b60201c565b61005460201b60201c565b60008060146101000a81548160ff021916908315150217905550610118565b600033905090565b60008060009054906101000a900473ffffffffffffffffffffffffffffffffffffffff169050816000806101000a81548173ffffffffffffffffffffffffffffffffffffffff021916908373ffffffffffffffffffffffffffffffffffffffff1602179055508173ffffffffffffffffffffffffffffffffffffffff168173ffffffffffffffffffffffffffffffffffffffff167f8be0079c531659141344cd1fd0a4f28419497f9722a3daafe3b4186f6b6457e060405160405180910390a35050565b610cb5806101276000396000f3fe6080604052600436106100915760003560e01c80638456cb59116100595780638456cb5914610157578063853828b61461016e5780638da5cb5b14610185578063d0e30db0146101b0578063f2fde38b146101ba57610091565b806312065fe0146100965780633f4ba83a146100c157806347734892146100d85780635c975abb14610115578063715018a614610140575b600080fd5b3480156100a257600080fd5b506100ab6101e3565b6040516100b891906107ea565b60405180910390f35b3480156100cd57600080fd5b506100d66101f3565b005b3480156100e457600080fd5b506100ff60048036038101906100fa9190610868565b610205565b60405161010c91906107ea565b60405180910390f35b34801561012157600080fd5b5061012a610256565b60405161013791906108b0565b60405180910390f35b34801561014c57600080fd5b5061015561026c565b005b34801561016357600080fd5b5061016c610280565b005b34801561017a57600080fd5b50610183610292565b005b34801561019157600080fd5b5061019a610423565b6040516101a791906108da565b60405180910390f35b6101b861044c565b005b3480156101c657600080fd5b506101e160048036038101906101dc9190610868565b6104ac565b005b60006101ed61052f565b47905090565b6101fb610579565b6102036105f7565b565b600061020f61052f565b600160008373ffffffffffffffffffffffffffffffffffffffff1673ffffffffffffffffffffffffffffffffffffffff168152602001908152602001600020549050919050565b60008060149054906101000a900460ff16905090565b610274610579565b61027e6000610659565b565b610288610579565b61029061071d565b565b61029a61052f565b60006102a533610205565b9050600081116102ea576040517f08c379a00000000000000000000000000000000000000000000000000000000081526004016102e190610952565b60405180910390fd5b803373ffffffffffffffffffffffffffffffffffffffff167f48e7f1db40e5513b2713e31f19fcdc30d7147bb19a90861a4b7f329e116782f660405160405180910390a360003373ffffffffffffffffffffffffffffffffffffffff1682604051610354906109a3565b60006040518083038185875af1925050503d8060008114610391576040519150601f19603f3d011682016040523d82523d6000602084013e610396565b606091505b50509050806103da576040517f08c379a00000000000000000000000000000000000000000000000000000000081526004016103d190610a04565b60405180910390fd5b6000600160003373ffffffffffffffffffffffffffffffffffffffff1673ffffffffffffffffffffffffffffffffffffffff168152602001908152602001600020819055505050565b60008060009054906101000a900473ffffffffffffffffffffffffffffffffffffffff16905090565b61045461052f565b34600160003373ffffffffffffffffffffffffffffffffffffffff1673ffffffffffffffffffffffffffffffffffffffff16815260200190815260200160002060008282546104a39190610a53565b92505081905550565b6104b4610579565b600073ffffffffffffffffffffffffffffffffffffffff168173ffffffffffffffffffffffffffffffffffffffff1603610523576040517f08c379a000000000000000000000000000000000000000000000000000000000815260040161051a90610b1b565b60405180910390fd5b61052c81610659565b50565b610537610256565b15610577576040517f08c379a000000000000000000000000000000000000000000000000000000000815260040161056e90610b87565b60405180910390fd5b565b610581610780565b73ffffffffffffffffffffffffffffffffffffffff1661059f610423565b73ffffffffffffffffffffffffffffffffffffffff16146105f5576040517f08c379a00000000000000000000000000000000000000000000000000000000081526004016105ec90610bf3565b60405180910390fd5b565b6105ff610788565b60008060146101000a81548160ff0219169083151502179055507f5db9ee0a495bf2e6ff9c91a7834c1ba4fdd244a5e8aa4e537bd38aeae4b073aa610642610780565b60405161064f91906108da565b60405180910390a1565b60008060009054906101000a900473ffffffffffffffffffffffffffffffffffffffff169050816000806101000a81548173ffffffffffffffffffffffffffffffffffffffff021916908373ffffffffffffffffffffffffffffffffffffffff1602179055508173ffffffffffffffffffffffffffffffffffffffff168173ffffffffffffffffffffffffffffffffffffffff167f8be0079c531659141344cd1fd0a4f28419497f9722a3daafe3b4186f6b6457e060405160405180910390a35050565b61072561052f565b6001600060146101000a81548160ff0219169083151502179055507f62e78cea01bee320cd4e420270b5ea74000d11b0c9f74754ebdbfc544b05a258610769610780565b60405161077691906108da565b60405180910390a1565b600033905090565b610790610256565b6107cf576040517f08c379a00000000000000000000000000000000000000000000000000000000081526004016107c690610c5f565b60405180910390fd5b565b6000819050919050565b6107e4816107d1565b82525050565b60006020820190506107ff60008301846107db565b92915050565b600080fd5b600073ffffffffffffffffffffffffffffffffffffffff82169050919050565b60006108358261080a565b9050919050565b6108458161082a565b811461085057600080fd5b50565b6000813590506108628161083c565b92915050565b60006020828403121561087e5761087d610805565b5b600061088c84828501610853565b91505092915050565b60008115159050919050565b6108aa81610895565b82525050565b60006020820190506108c560008301846108a1565b92915050565b6108d48161082a565b82525050565b60006020820190506108ef60008301846108cb565b92915050565b600082825260208201905092915050565b7f496e73756666696369656e742062616c616e6365000000000000000000000000600082015250565b600061093c6014836108f5565b915061094782610906565b602082019050919050565b6000602082019050818103600083015261096b8161092f565b9050919050565b600081905092915050565b50565b600061098d600083610972565b91506109988261097d565b600082019050919050565b60006109ae82610980565b9150819050919050565b7f4661696c656420746f2073656e64204574686572000000000000000000000000600082015250565b60006109ee6014836108f5565b91506109f9826109b8565b602082019050919050565b60006020820190508181036000830152610a1d816109e1565b9050919050565b7f4e487b7100000000000000000000000000000000000000000000000000000000600052601160045260246000fd5b6000610a5e826107d1565b9150610a69836107d1565b9250827fffffffffffffffffffffffffffffffffffffffffffffffffffffffffffffffff03821115610a9e57610a9d610a24565b5b828201905092915050565b7f4f776e61626c653a206e6577206f776e657220697320746865207a65726f206160008201527f6464726573730000000000000000000000000000000000000000000000000000602082015250565b6000610b056026836108f5565b9150610b1082610aa9565b604082019050919050565b60006020820190508181036000830152610b3481610af8565b9050919050565b7f5061757361626c653a2070617573656400000000000000000000000000000000600082015250565b6000610b716010836108f5565b9150610b7c82610b3b565b602082019050919050565b60006020820190508181036000830152610ba081610b64565b9050919050565b7f4f776e61626c653a2063616c6c6572206973206e6f7420746865206f776e6572600082015250565b6000610bdd6020836108f5565b9150610be882610ba7565b602082019050919050565b60006020820190508181036000830152610c0c81610bd0565b9050919050565b7f5061757361626c653a206e6f7420706175736564000000000000000000000000600082015250565b6000610c496014836108f5565b9150610c5482610c13565b602082019050919050565b60006020820190508181036000830152610c7881610c3c565b905091905056fea2646970667358221220c4e081b7538092ba7e4d6b2c6a142c6305e998ad2da62a35a8d6ec1e25d67d7964736f6c634300080d0033",
  "linkReferences": {},
  "deployedLinkReferences": {}
}