{
  "_format": "hh-sol-artifact-1",
  "contractName": "InsecureEtherVault",
  "sourceName": "contracts/InsecureEtherVault.sol",
  "abi": [
    {
      "anonymous": false,
      "inputs": [
        {
          "indexed": true,
          "internalType": "address",
          "name": "previousOwner",
          "type": "address"
        },
        {
          "indexed": true,
          "internalType": "address",
          "name": "newOwner",
          "type": "address"
        }
      ],
      "name": "OwnershipTransferred",
      "type": "event"
    },
    {
      "anonymous": false,
      "inputs": [
        {
          "indexed": false,
          "internalType": "address",
          "name": "account",
          "type": "address"
        }
      ],
      "name": "Paused",
      "type": "event"
    },
    {
      "anonymous": false,
      "inputs": [
        {
          "indexed": false,
          "internalType": "address",
          "name": "account",
          "type": "address"
        }
      ],
      "name": "Unpaused",
      "type": "event"
    },
    {
      "anonymous": false,
      "inputs": [
        {
          "indexed": true,
          "internalType": "address",
          "name": "userAddress",
          "type": "address"
        },
        {
          "indexed": true,
          "internalType": "uint256",
          "name": "balance",
          "type": "uint256"
        }
      ],
      "name": "WithdrawAllCalled",
      "type": "event"
    },
    {
      "inputs": [],
      "name": "deposit",
      "outputs": [],
      "stateMutability": "payable",
      "type": "function"
    },
    {
      "inputs": [],
      "name": "getBalance",
      "outputs": [
        {
          "internalType": "uint256",
          "name": "",
          "type": "uint256"
        }
      ],
      "stateMutability": "view",
      "type": "function"
    },
    {
      "inputs": [
        {
          "internalType": "address",
          "name": "_user",
          "type": "address"
        }
      ],
      "name": "getUserBalance",
      "outputs": [
        {
          "internalType": "uint256",
          "name": "",
          "type": "uint256"
        }
      ],
      "stateMutability": "view",
      "type": "function"
    },
    {
      "inputs": [],
      "name": "owner",
      "outputs": [
        {
          "internalType": "address",
          "name": "",
          "type": "address"
        }
      ],
      "stateMutability": "view",
      "type": "function"
    },
    {
      "inputs": [],
      "name": "pause",
      "outputs": [],
      "stateMutability": "nonpayable",
      "type": "function"
    },
    {
      "inputs": [],
      "name": "paused",
      "outputs": [
        {
          "internalType": "bool",
          "name": "",
          "type": "bool"
        }
      ],
      "stateMutability": "view",
      "type": "function"
    },
    {
      "inputs": [],
      "name": "renounceOwnership",
      "outputs": [],
      "stateMutability": "nonpayable",
      "type": "function"
    },
    {
      "inputs": [
        {
          "internalType": "address",
          "name": "newOwner",
          "type": "address"
        }
      ],
      "name": "transferOwnership",
      "outputs": [],
      "stateMutability": "nonpayable",
      "type": "function"
    },
    {
      "inputs": [],
      "name": "unpause",
      "outputs": [],
      "stateMutability": "nonpayable",
      "type": "function"
    },
    {
      "inputs": [],
      "name": "withdrawAll",
      "outputs": [],
      "stateMutability": "nonpayable",
      "type": "function"
    }
  ],
  "bytecode": "0x608060405234801561001057600080fd5b5061002d61002261004c60201b60201c565b61005460201b60201c565b60008060146101000a81548160ff021916908315150217905550610118565b600033905090565b60008060009054906101000a900473ffffffffffffffffffffffffffffffffffffffff169050816000806101000a81548173ffffffffffffffffffffffffffffffffffffffff021916908373ffffffffffffffffffffffffffffffffffffffff1602179055508173ffffffffffffffffffffffffffffffffffffffff168173ffffffffffffffffffffffffffffffffffffffff167f8be0079c531659141344cd1fd0a4f28419497f9722a3daafe3b4186f6b6457e060405160405180910390a35050565b610cc5806101276000396000f3fe6080604052600436106100915760003560e01c80638456cb59116100595780638456cb5914610157578063853828b61461016e5780638da5cb5b14610185578063d0e30db0146101b0578063f2fde38b146101ba57610091565b806312065fe0146100965780633f4ba83a146100c157806347734892146100d85780635c975abb14610115578063715018a614610140575b600080fd5b3480156100a257600080fd5b506100ab6101e3565b6040516100b891906107fa565b60405180910390f35b3480156100cd57600080fd5b506100d66101f3565b005b3480156100e457600080fd5b506100ff60048036038101906100fa9190610878565b61020d565b60405161010c91906107fa565b60405180910390f35b34801561012157600080fd5b5061012a61025e565b60405161013791906108c0565b60405180910390f35b34801561014c57600080fd5b50610155610274565b005b34801561016357600080fd5b5061016c610288565b005b34801561017a57600080fd5b506101836102a2565b005b34801561019157600080fd5b5061019a610433565b6040516101a791906108ea565b60405180910390f35b6101b861045c565b005b3480156101c657600080fd5b506101e160048036038101906101dc9190610878565b6104bc565b005b60006101ed61053f565b47905090565b6101fb610589565b610203610607565b61020b610650565b565b600061021761053f565b600160008373ffffffffffffffffffffffffffffffffffffffff1673ffffffffffffffffffffffffffffffffffffffff168152602001908152602001600020549050919050565b60008060149054906101000a900460ff16905090565b61027c610589565b61028660006106b2565b565b610290610589565b61029861053f565b6102a0610776565b565b6102aa61053f565b60006102b53361020d565b9050600081116102fa576040517f08c379a00000000000000000000000000000000000000000000000000000000081526004016102f190610962565b60405180910390fd5b803373ffffffffffffffffffffffffffffffffffffffff167f48e7f1db40e5513b2713e31f19fcdc30d7147bb19a90861a4b7f329e116782f660405160405180910390a360003373ffffffffffffffffffffffffffffffffffffffff1682604051610364906109b3565b60006040518083038185875af1925050503d80600081146103a1576040519150601f19603f3d011682016040523d82523d6000602084013e6103a6565b606091505b50509050806103ea576040517f08c379a00000000000000000000000000000000000000000000000000000000081526004016103e190610a14565b60405180910390fd5b6000600160003373ffffffffffffffffffffffffffffffffffffffff1673ffffffffffffffffffffffffffffffffffffffff168152602001908152602001600020819055505050565b60008060009054906101000a900473ffffffffffffffffffffffffffffffffffffffff16905090565b61046461053f565b34600160003373ffffffffffffffffffffffffffffffffffffffff1673ffffffffffffffffffffffffffffffffffffffff16815260200190815260200160002060008282546104b39190610a63565b92505081905550565b6104c4610589565b600073ffffffffffffffffffffffffffffffffffffffff168173ffffffffffffffffffffffffffffffffffffffff1603610533576040517f08c379a000000000000000000000000000000000000000000000000000000000815260040161052a90610b2b565b60405180910390fd5b61053c816106b2565b50565b61054761025e565b15610587576040517f08c379a000000000000000000000000000000000000000000000000000000000815260040161057e90610b97565b60405180910390fd5b565b6105916107d9565b73ffffffffffffffffffffffffffffffffffffffff166105af610433565b73ffffffffffffffffffffffffffffffffffffffff1614610605576040517f08c379a00000000000000000000000000000000000000000000000000000000081526004016105fc90610c03565b60405180910390fd5b565b61060f61025e565b61064e576040517f08c379a000000000000000000000000000000000000000000000000000000000815260040161064590610c6f565b60405180910390fd5b565b610658610607565b60008060146101000a81548160ff0219169083151502179055507f5db9ee0a495bf2e6ff9c91a7834c1ba4fdd244a5e8aa4e537bd38aeae4b073aa61069b6107d9565b6040516106a891906108ea565b60405180910390a1565b60008060009054906101000a900473ffffffffffffffffffffffffffffffffffffffff169050816000806101000a81548173ffffffffffffffffffffffffffffffffffffffff021916908373ffffffffffffffffffffffffffffffffffffffff1602179055508173ffffffffffffffffffffffffffffffffffffffff168173ffffffffffffffffffffffffffffffffffffffff167f8be0079c531659141344cd1fd0a4f28419497f9722a3daafe3b4186f6b6457e060405160405180910390a35050565b61077e61053f565b6001600060146101000a81548160ff0219169083151502179055507f62e78cea01bee320cd4e420270b5ea74000d11b0c9f74754ebdbfc544b05a2586107c26107d9565b6040516107cf91906108ea565b60405180910390a1565b600033905090565b6000819050919050565b6107f4816107e1565b82525050565b600060208201905061080f60008301846107eb565b92915050565b600080fd5b600073ffffffffffffffffffffffffffffffffffffffff82169050919050565b60006108458261081a565b9050919050565b6108558161083a565b811461086057600080fd5b50565b6000813590506108728161084c565b92915050565b60006020828403121561088e5761088d610815565b5b600061089c84828501610863565b91505092915050565b60008115159050919050565b6108ba816108a5565b82525050565b60006020820190506108d560008301846108b1565b92915050565b6108e48161083a565b82525050565b60006020820190506108ff60008301846108db565b92915050565b600082825260208201905092915050565b7f496e73756666696369656e742062616c616e6365000000000000000000000000600082015250565b600061094c601483610905565b915061095782610916565b602082019050919050565b6000602082019050818103600083015261097b8161093f565b9050919050565b600081905092915050565b50565b600061099d600083610982565b91506109a88261098d565b600082019050919050565b60006109be82610990565b9150819050919050565b7f4661696c656420746f2073656e64204574686572000000000000000000000000600082015250565b60006109fe601483610905565b9150610a09826109c8565b602082019050919050565b60006020820190508181036000830152610a2d816109f1565b9050919050565b7f4e487b7100000000000000000000000000000000000000000000000000000000600052601160045260246000fd5b6000610a6e826107e1565b9150610a79836107e1565b9250827fffffffffffffffffffffffffffffffffffffffffffffffffffffffffffffffff03821115610aae57610aad610a34565b5b828201905092915050565b7f4f776e61626c653a206e6577206f776e657220697320746865207a65726f206160008201527f6464726573730000000000000000000000000000000000000000000000000000602082015250565b6000610b15602683610905565b9150610b2082610ab9565b604082019050919050565b60006020820190508181036000830152610b4481610b08565b9050919050565b7f5061757361626c653a2070617573656400000000000000000000000000000000600082015250565b6000610b81601083610905565b9150610b8c82610b4b565b602082019050919050565b60006020820190508181036000830152610bb081610b74565b9050919050565b7f4f776e61626c653a2063616c6c6572206973206e6f7420746865206f776e6572600082015250565b6000610bed602083610905565b9150610bf882610bb7565b602082019050919050565b60006020820190508181036000830152610c1c81610be0565b9050919050565b7f5061757361626c653a206e6f7420706175736564000000000000000000000000600082015250565b6000610c59601483610905565b9150610c6482610c23565b602082019050919050565b60006020820190508181036000830152610c8881610c4c565b905091905056fea2646970667358221220a2696285eb85e71a891598293d179c0ecb62199b598103d26c94c4ea3a9ebca964736f6c634300080d0033",
  "linkReferences": {},
  "deployedLinkReferences": {}
}